{"abi":[{"type":"constructor","inputs":[{"name":"policy","type":"address","internalType":"address"},{"name":"watcher","type":"address","internalType":"address"}],"stateMutability":"nonpayable"},{"type":"function","name":"DEFAULT_ADMIN_ROLE","inputs":[],"outputs":[{"name":"","type":"bytes32","internalType":"bytes32"}],"stateMutability":"view"},{"type":"function","name":"POLICY_ROLE","inputs":[],"outputs":[{"name":"","type":"bytes32","internalType":"bytes32"}],"stateMutability":"view"},{"type":"function","name":"WATCHER_ROLE","inputs":[],"outputs":[{"name":"","type":"bytes32","internalType":"bytes32"}],"stateMutability":"view"},{"type":"function","name":"bondStake","inputs":[{"name":"cid","type":"bytes32","internalType":"bytes32"}],"outputs":[],"stateMutability":"payable"},{"type":"function","name":"cids","inputs":[{"name":"","type":"bytes32","internalType":"bytes32"}],"outputs":[{"name":"publisher","type":"address","internalType":"address"},{"name":"slo","type":"tuple","internalType":"struct EvidenceRegistry.SLO","components":[{"name":"k","type":"uint8","internalType":"uint8"},{"name":"n","type":"uint8","internalType":"uint8"},{"name":"timeout","type":"uint16","internalType":"uint16"},{"name":"window","type":"uint16","internalType":"uint16"}]},{"name":"totalStake","type":"uint256","internalType":"uint256"},{"name":"lastPackCIDDigest","type":"bytes32","internalType":"bytes32"},{"name":"lastBreachAt","type":"uint64","internalType":"uint64"},{"name":"consecutiveFails","type":"uint8","internalType":"uint8"},{"name":"slashingEnabled","type":"bool","internalType":"bool"},{"name":"nonce","type":"uint64","internalType":"uint64"}],"stateMutability":"view"},{"type":"function","name":"getCID","inputs":[{"name":"cid","type":"bytes32","internalType":"bytes32"}],"outputs":[{"name":"slo","type":"tuple","internalType":"struct EvidenceRegistry.SLO","components":[{"name":"k","type":"uint8","internalType":"uint8"},{"name":"n","type":"uint8","internalType":"uint8"},{"name":"timeout","type":"uint16","internalType":"uint16"},{"name":"window","type":"uint16","internalType":"uint16"}]},{"name":"totalStake","type":"uint256","internalType":"uint256"},{"name":"lastPackCID","type":"bytes32","internalType":"bytes32"}],"stateMutability":"view"},{"type":"function","name":"getCIDState","inputs":[{"name":"cid","type":"bytes32","internalType":"bytes32"}],"outputs":[{"name":"","type":"tuple","internalType":"struct EvidenceRegistry.CIDState","components":[{"name":"publisher","type":"address","internalType":"address"},{"name":"slo","type":"tuple","internalType":"struct EvidenceRegistry.SLO","components":[{"name":"k","type":"uint8","internalType":"uint8"},{"name":"n","type":"uint8","internalType":"uint8"},{"name":"timeout","type":"uint16","internalType":"uint16"},{"name":"window","type":"uint16","internalType":"uint16"}]},{"name":"totalStake","type":"uint256","internalType":"uint256"},{"name":"lastPackCIDDigest","type":"bytes32","internalType":"bytes32"},{"name":"lastBreachAt","type":"uint64","internalType":"uint64"},{"name":"consecutiveFails","type":"uint8","internalType":"uint8"},{"name":"slashingEnabled","type":"bool","internalType":"bool"},{"name":"nonce","type":"uint64","internalType":"uint64"}]}],"stateMutability":"view"},{"type":"function","name":"getRoleAdmin","inputs":[{"name":"role","type":"bytes32","internalType":"bytes32"}],"outputs":[{"name":"","type":"bytes32","internalType":"bytes32"}],"stateMutability":"view"},{"type":"function","name":"grantRole","inputs":[{"name":"role","type":"bytes32","internalType":"bytes32"},{"name":"account","type":"address","internalType":"address"}],"outputs":[],"stateMutability":"nonpayable"},{"type":"function","name":"hasRole","inputs":[{"name":"role","type":"bytes32","internalType":"bytes32"},{"name":"account","type":"address","internalType":"address"}],"outputs":[{"name":"","type":"bool","internalType":"bool"}],"stateMutability":"view"},{"type":"function","name":"pause","inputs":[],"outputs":[],"stateMutability":"nonpayable"},{"type":"function","name":"paused","inputs":[],"outputs":[{"name":"","type":"bool","internalType":"bool"}],"stateMutability":"view"},{"type":"function","name":"registerCID","inputs":[{"name":"cid","type":"bytes32","internalType":"bytes32"},{"name":"slo","type":"tuple","internalType":"struct EvidenceRegistry.SLO","components":[{"name":"k","type":"uint8","internalType":"uint8"},{"name":"n","type":"uint8","internalType":"uint8"},{"name":"timeout","type":"uint16","internalType":"uint16"},{"name":"window","type":"uint16","internalType":"uint16"}]},{"name":"slashingEnabled","type":"bool","internalType":"bool"}],"outputs":[],"stateMutability":"nonpayable"},{"type":"function","name":"renounceRole","inputs":[{"name":"role","type":"bytes32","internalType":"bytes32"},{"name":"callerConfirmation","type":"address","internalType":"address"}],"outputs":[],"stateMutability":"nonpayable"},{"type":"function","name":"reportPack","inputs":[{"name":"p","type":"tuple","internalType":"struct EvidenceRegistry.PackRef","components":[{"name":"cidDigest","type":"bytes32","internalType":"bytes32"},{"name":"packCIDDigest","type":"bytes32","internalType":"bytes32"},{"name":"ts","type":"uint64","internalType":"uint64"},{"name":"status","type":"uint8","internalType":"uint8"},{"name":"nonce","type":"uint64","internalType":"uint64"}]}],"outputs":[],"stateMutability":"nonpayable"},{"type":"function","name":"revokeRole","inputs":[{"name":"role","type":"bytes32","internalType":"bytes32"},{"name":"account","type":"address","internalType":"address"}],"outputs":[],"stateMutability":"nonpayable"},{"type":"function","name":"slash","inputs":[{"name":"cid","type":"bytes32","internalType":"bytes32"},{"name":"amount","type":"uint256","internalType":"uint256"}],"outputs":[],"stateMutability":"nonpayable"},{"type":"function","name":"supportsInterface","inputs":[{"name":"interfaceId","type":"bytes4","internalType":"bytes4"}],"outputs":[{"name":"","type":"bool","internalType":"bool"}],"stateMutability":"view"},{"type":"function","name":"unpause","inputs":[],"outputs":[],"stateMutability":"nonpayable"},{"type":"event","name":"BreachDetected","inputs":[{"name":"cid","type":"bytes32","indexed":true,"internalType":"bytes32"},{"name":"at","type":"uint64","indexed":false,"internalType":"uint64"}],"anonymous":false},{"type":"event","name":"CIDRegistered","inputs":[{"name":"cid","type":"bytes32","indexed":true,"internalType":"bytes32"},{"name":"publisher","type":"address","indexed":true,"internalType":"address"},{"name":"slo","type":"tuple","indexed":false,"internalType":"struct EvidenceRegistry.SLO","components":[{"name":"k","type":"uint8","internalType":"uint8"},{"name":"n","type":"uint8","internalType":"uint8"},{"name":"timeout","type":"uint16","internalType":"uint16"},{"name":"window","type":"uint16","internalType":"uint16"}]},{"name":"slashing","type":"bool","indexed":false,"internalType":"bool"}],"anonymous":false},{"type":"event","name":"EvidenceAnchored","inputs":[{"name":"cid","type":"bytes32","indexed":true,"internalType":"bytes32"},{"name":"packCID","type":"bytes32","indexed":true,"internalType":"bytes32"},{"name":"status","type":"uint8","indexed":false,"internalType":"uint8"},{"name":"nonce","type":"uint64","indexed":false,"internalType":"uint64"}],"anonymous":false},{"type":"event","name":"Paused","inputs":[{"name":"account","type":"address","indexed":false,"internalType":"address"}],"anonymous":false},{"type":"event","name":"RoleAdminChanged","inputs":[{"name":"role","type":"bytes32","indexed":true,"internalType":"bytes32"},{"name":"previousAdminRole","type":"bytes32","indexed":true,"internalType":"bytes32"},{"name":"newAdminRole","type":"bytes32","indexed":true,"internalType":"bytes32"}],"anonymous":false},{"type":"event","name":"RoleGranted","inputs":[{"name":"role","type":"bytes32","indexed":true,"internalType":"bytes32"},{"name":"account","type":"address","indexed":true,"internalType":"address"},{"name":"sender","type":"address","indexed":true,"internalType":"address"}],"anonymous":false},{"type":"event","name":"RoleRevoked","inputs":[{"name":"role","type":"bytes32","indexed":true,"internalType":"bytes32"},{"name":"account","type":"address","indexed":true,"internalType":"address"},{"name":"sender","type":"address","indexed":true,"internalType":"address"}],"anonymous":false},{"type":"event","name":"Slashed","inputs":[{"name":"cid","type":"bytes32","indexed":true,"internalType":"bytes32"},{"name":"amount","type":"uint256","indexed":false,"internalType":"uint256"},{"name":"by","type":"address","indexed":true,"internalType":"address"}],"anonymous":false},{"type":"event","name":"StakeBonded","inputs":[{"name":"cid","type":"bytes32","indexed":true,"internalType":"bytes32"},{"name":"staker","type":"address","indexed":true,"internalType":"address"},{"name":"amount","type":"uint256","indexed":false,"internalType":"uint256"}],"anonymous":false},{"type":"event","name":"Unpaused","inputs":[{"name":"account","type":"address","indexed":false,"internalType":"address"}],"anonymous":false},{"type":"error","name":"AccessControlBadConfirmation","inputs":[]},{"type":"error","name":"AccessControlUnauthorizedAccount","inputs":[{"name":"account","type":"address","internalType":"address"},{"name":"neededRole","type":"bytes32","internalType":"bytes32"}]},{"type":"error","name":"EnforcedPause","inputs":[]},{"type":"error","name":"ExpectedPause","inputs":[]},{"type":"error","name":"ReentrancyGuardReentrantCall","inputs":[]}],"bytecode":{"object":"0x608060405234801562000010575f80fd5b50604051620019e0380380620019e0833981016040819052620000339162000223565b60016002556001600160a01b038216620000945760405162461bcd60e51b815260206004820152601d60248201527f506f6c69637920616464726573732063616e6e6f74206265207a65726f00000060448201526064015b60405180910390fd5b6001600160a01b038116620000ec5760405162461bcd60e51b815260206004820152601e60248201527f5761746368657220616464726573732063616e6e6f74206265207a65726f000060448201526064016200008b565b620000f85f336200015b565b50620001257ffb5864e8ff833c3cb2d2d08505e82ff02a43554c74a35d4f5a64e85261278311836200015b565b50620001527f2125d1e225cadc5c8296e2cc1f96ee607770bf4a4a16131e62f6819937437c89826200015b565b50505062000259565b5f828152602081815260408083206001600160a01b038516845290915281205460ff16620001fe575f838152602081815260408083206001600160a01b03861684529091529020805460ff19166001179055620001b53390565b6001600160a01b0316826001600160a01b0316847f2f8788117e7eff1d82e926ec794901d17c78024a50270940304540a733656f0d60405160405180910390a450600162000201565b505f5b92915050565b80516001600160a01b03811681146200021e575f80fd5b919050565b5f806040838503121562000235575f80fd5b620002408362000207565b9150620002506020840162000207565b90509250929050565b61177980620002675f395ff3fe608060405260043610610110575f3560e01c806344e0a5261161009d57806391d148541161006257806391d1485414610426578063a217fddf14610445578063d547741f14610458578063e4fe816614610477578063f1ba83a1146104a3575f80fd5b806344e0a526146102f057806351f3c654146103bd5780635c975abb146103dc5780638456cb59146103f35780638db3e54f14610407575f80fd5b806329cf486d116100e357806329cf486d146101d85780632f2ff15d146101eb57806336568abe1461020a57806339ecade2146102295780633f4ba83a146102dc575f80fd5b806301ffc9a7146101145780631c77ff04146101485780632298524614610169578063248a9ca3146101aa575b5f80fd5b34801561011f575f80fd5b5061013361012e36600461133e565b6104d6565b60405190151581526020015b60405180910390f35b348015610153575f80fd5b5061016761016236600461136c565b61050c565b005b348015610174575f80fd5b5061019c7ffb5864e8ff833c3cb2d2d08505e82ff02a43554c74a35d4f5a64e8526127831181565b60405190815260200161013f565b3480156101b5575f80fd5b5061019c6101c436600461138c565b5f9081526020819052604090206001015490565b6101676101e636600461138c565b610751565b3480156101f6575f80fd5b506101676102053660046113a3565b610871565b348015610215575f80fd5b506101676102243660046113a3565b61089b565b348015610234575f80fd5b506102cd61024336600461138c565b604080516080810182525f808252602082018190529181018290526060810191909152505f81815260036020818152604092839020600281015492810154845160808101865260019092015460ff80821684526101008204169383019390935261ffff62010000840481169583019590955264010000000090920490931660608401529193909250565b60405161013f93929190611412565b3480156102e7575f80fd5b506101676108ce565b3480156102fb575f80fd5b506103a961030a36600461138c565b600360208181525f92835260409283902080548451608081018652600183015460ff8082168352610100820481169583019590955261ffff620100008204811697830197909752640100000000900490951660608601526002820154938201546004909201546001600160a01b039091169493926001600160401b0380831692600160401b8104831692600160481b82041691600160501b9091041688565b60405161013f989796959493929190611431565b3480156103c8575f80fd5b506101676103d7366004611491565b6108e0565b3480156103e7575f80fd5b5060015460ff16610133565b3480156103fe575f80fd5b50610167610c22565b348015610412575f80fd5b506101676104213660046114a7565b610c34565b348015610431575f80fd5b506101336104403660046113a3565b610f7f565b348015610450575f80fd5b5061019c5f81565b348015610463575f80fd5b506101676104723660046113a3565b610fa7565b348015610482575f80fd5b5061049661049136600461138c565b610fcb565b60405161013f91906114f3565b3480156104ae575f80fd5b5061019c7f2125d1e225cadc5c8296e2cc1f96ee607770bf4a4a16131e62f6819937437c8981565b5f6001600160e01b03198216637965db0b60e01b148061050657506301ffc9a760e01b6001600160e01b03198316145b92915050565b7ffb5864e8ff833c3cb2d2d08505e82ff02a43554c74a35d4f5a64e8526127831161053681611101565b61053e61110b565b610546611131565b5f8381526003602052604090206004810154600160481b900460ff166105bd5760405162461bcd60e51b815260206004820152602160248201527f536c617368696e67206e6f7420656e61626c656420666f7220746869732043496044820152601160fa1b60648201526084015b60405180910390fd5b5f831161060c5760405162461bcd60e51b815260206004820152601d60248201527f416d6f756e74206d7573742062652067726561746572207468616e203000000060448201526064016105b4565b80600201548311156106605760405162461bcd60e51b815260206004820152601a60248201527f416d6f756e74206578636565647320746f74616c207374616b6500000000000060448201526064016105b4565b82816002015f8282546106739190611594565b909155505080546040515f916001600160a01b03169085908381818185875af1925050503d805f81146106c1576040519150601f19603f3d011682016040523d82523d5f602084013e6106c6565b606091505b50509050806107095760405162461bcd60e51b815260206004820152600f60248201526e151c985b9cd9995c8819985a5b1959608a1b60448201526064016105b4565b604051848152339086907fb543dd4907d254af3dc36fa58e9b99a6ce4e10cb1639cefc22ecd2595abda2b79060200160405180910390a3505061074c6001600255565b505050565b61075961110b565b610761611131565b5f34116107b05760405162461bcd60e51b815260206004820152601960248201527f4d7573742073656e6420706f73697469766520616d6f756e740000000000000060448201526064016105b4565b5f818152600360205260409020546001600160a01b03166108085760405162461bcd60e51b815260206004820152601260248201527110d25108191bd95cc81b9bdd08195e1a5cdd60721b60448201526064016105b4565b5f81815260036020526040812060020180543492906108289084906115a7565b9091555050604051348152339082907f23b883d76955bfb861e4c9361b1cd09939be923e2a0f0dba0a1e7a2070f722c89060200160405180910390a361086e6001600255565b50565b5f8281526020819052604090206001015461088b81611101565b6108958383611159565b50505050565b6001600160a01b03811633146108c45760405163334bd91960e11b815260040160405180910390fd5b61074c82826111e8565b5f6108d881611101565b61086e611251565b7f2125d1e225cadc5c8296e2cc1f96ee607770bf4a4a16131e62f6819937437c8961090a81611101565b61091261110b565b81355f90815260036020526040902080546001600160a01b031661096d5760405162461bcd60e51b815260206004820152601260248201527110d25108191bd95cc81b9bdd08195e1a5cdd60721b60448201526064016105b4565b600481015461098d90600160501b90046001600160401b031660016115ba565b6001600160401b03166109a660a08501608086016115da565b6001600160401b031614610a065760405162461bcd60e51b815260206004820152602160248201527f496e76616c6964206e6f6e63653a206d7573742062652073657175656e7469616044820152601b60fa1b60648201526084016105b4565b60048101546001600160401b0316610a2460608501604086016115da565b6001600160401b03161015610a8a5760405162461bcd60e51b815260206004820152602660248201527f54696d657374616d702063616e6e6f74206265206265666f7265206c617374206044820152650c4e4cac2c6d60d31b60648201526084016105b4565b610a9a60a08401608085016115da565b6004820180546001600160401b0392909216600160501b0267ffffffffffffffff60501b1990921691909117905560208301356003820155610ae26080840160608501611615565b60ff16600203610b8257600481018054600160401b900460ff16906008610b088361162e565b825460ff9182166101009390930a9283029190920219909116179055506004810180546001600160401b03421667ffffffffffffffff1990911681179091556040519081528335907fe015f63a786a398a99fb2cb888a5d31a0a6c7f27cbe8492aad5275f0d4e260e39060200160405180910390a2610bb0565b610b926080840160608501611615565b60ff165f03610bb05760048101805468ff0000000000000000191690555b602083013583357f0cbb5127cb6827543b4334ca7b5a8e7635f21e70b95f2adc8e9d4a7b891c6481610be86080870160608801611615565b610bf860a08801608089016115da565b6040805160ff90931683526001600160401b039091166020830152015b60405180910390a3505050565b5f610c2c81611101565b61086e6112a3565b610c3c61110b565b5f610c4a6020840184611615565b60ff1611610c9a5760405162461bcd60e51b815260206004820152601860248201527f6b206d7573742062652067726561746572207468616e2030000000000000000060448201526064016105b4565b610caa6040830160208401611615565b60ff16610cba6020840184611615565b60ff161115610d0b5760405162461bcd60e51b815260206004820152601a60248201527f6b2063616e6e6f742062652067726561746572207468616e206e00000000000060448201526064016105b4565b6005610d1d6040840160208501611615565b60ff161115610d6e5760405162461bcd60e51b815260206004820152601a60248201527f6e2063616e6e6f742062652067726561746572207468616e203500000000000060448201526064016105b4565b5f838152600360205260409020546001600160a01b031615610dcb5760405162461bcd60e51b815260206004820152601660248201527510d25108185b1c9958591e481c9959da5cdd195c995960521b60448201526064016105b4565b60408051610100810190915233815260208101610ded3685900385018561165d565b81525f602080830182905260408084018390526060808501849052608080860185905287151560a08088019190915260c09687018690528a8652600380865295849020885181546001600160a01b0319166001600160a01b0390911617815588860151805160018301805498830151838901519388015160ff93841661ffff19909b169a909a17610100918416919091021765ffffffff000019166201000061ffff9485160265ffff000000001916176401000000009390991692909202979097179055888501516002820155928801519583019590955586015160049091018054948701519587015160e0909701516001600160401b0392831668ffffffffffffffffff1990961695909517600160401b96909416959095029290921771ffffffffffffffffff0000000000000000001916600160481b9515159590950267ffffffffffffffff60501b191694909417600160501b919092160217905551339084907fc7b186a5680511c66d1b5c2cfe484355c11e8d532b6e554b7879d39be7c0ebab90610c1590869086906116e3565b5f918252602082815260408084206001600160a01b0393909316845291905290205460ff1690565b5f82815260208190526040902060010154610fc181611101565b61089583836111e8565b61103260408051610100810182525f808252825160808101845281815260208181018390529381018290526060810191909152909182019081525f6020820181905260408201819052606082018190526080820181905260a0820181905260c09091015290565b505f908152600360208181526040928390208351610100808201865282546001600160a01b03168252855160808082018852600185015460ff808216845293810484168388015261ffff6201000082048116848b015264010000000090910416606080840191909152958401919091526002840154968301969096529382015492810192909252600401546001600160401b0380821694830194909452600160401b8104831660a0830152600160481b8104909216151560c0820152600160501b90910490911660e082015290565b61086e81336112de565b60015460ff161561112f5760405163d93c066560e01b815260040160405180910390fd5b565b600280540361115357604051633ee5aeb560e01b815260040160405180910390fd5b60028055565b5f6111648383610f7f565b6111e1575f838152602081815260408083206001600160a01b03861684529091529020805460ff191660011790556111993390565b6001600160a01b0316826001600160a01b0316847f2f8788117e7eff1d82e926ec794901d17c78024a50270940304540a733656f0d60405160405180910390a4506001610506565b505f610506565b5f6111f38383610f7f565b156111e1575f838152602081815260408083206001600160a01b0386168085529252808320805460ff1916905551339286917ff6391f5c32d9c69d2a47ea670b442974b53935d1edc7fd64eb21e047a839171b9190a4506001610506565b61125961131b565b6001805460ff191690557f5db9ee0a495bf2e6ff9c91a7834c1ba4fdd244a5e8aa4e537bd38aeae4b073aa335b6040516001600160a01b03909116815260200160405180910390a1565b6112ab61110b565b6001805460ff1916811790557f62e78cea01bee320cd4e420270b5ea74000d11b0c9f74754ebdbfc544b05a25833611286565b6112e88282610f7f565b6113175760405163e2517d3f60e01b81526001600160a01b0382166004820152602481018390526044016105b4565b5050565b60015460ff1661112f57604051638dfc202b60e01b815260040160405180910390fd5b5f6020828403121561134e575f80fd5b81356001600160e01b031981168114611365575f80fd5b9392505050565b5f806040838503121561137d575f80fd5b50508035926020909101359150565b5f6020828403121561139c575f80fd5b5035919050565b5f80604083850312156113b4575f80fd5b8235915060208301356001600160a01b03811681146113d1575f80fd5b809150509250929050565b60ff815116825260ff6020820151166020830152604081015161ffff808216604085015280606084015116606085015250505050565b60c0810161142082866113dc565b608082019390935260a00152919050565b6001600160a01b0389168152610160810161144f602083018a6113dc565b60a082019790975260c08101959095526001600160401b0393841660e086015260ff929092166101008501521515610120840152166101409091015292915050565b5f60a082840312156114a1575f80fd5b50919050565b5f805f83850360c08112156114ba575f80fd5b843593506080601f19820112156114cf575f80fd5b5060208401915060a084013580151581146114e8575f80fd5b809150509250925092565b81516001600160a01b03168152602080830151610160830191611518908401826113dc565b50604083015160a0830152606083015160c08301526001600160401b0360808401511660e083015260a083015161155561010084018260ff169052565b5060c0830151151561012083015260e08301516001600160401b0381166101408401525b5092915050565b634e487b7160e01b5f52601160045260245ffd5b8181038181111561050657610506611580565b8082018082111561050657610506611580565b6001600160401b0381811683821601908082111561157957611579611580565b5f602082840312156115ea575f80fd5b81356001600160401b0381168114611365575f80fd5b803560ff81168114611610575f80fd5b919050565b5f60208284031215611625575f80fd5b61136582611600565b5f60ff821660ff810361164357611643611580565b60010192915050565b803561ffff81168114611610575f80fd5b5f6080828403121561166d575f80fd5b604051608081018181106001600160401b038211171561169b57634e487b7160e01b5f52604160045260245ffd5b6040526116a783611600565b81526116b560208401611600565b60208201526116c66040840161164c565b60408201526116d76060840161164c565b60608201529392505050565b60a0810160ff6116f285611600565b16825260ff61170360208601611600565b1660208301526117156040850161164c565b61ffff80821660408501528061172d6060880161164c565b166060850152505091151560809091015291905056fea2646970667358221220f0e459d77eb949d3848c5bdd4051f0f9f71cd68e706c7ef6e04b5ad5e04620c064736f6c63430008180033","linkReferences":{}},"methodIdentifiers":{"DEFAULT_ADMIN_ROLE()":"a217fddf","POLICY_ROLE()":"22985246","WATCHER_ROLE()":"f1ba83a1","bondStake(bytes32)":"29cf486d","cids(bytes32)":"44e0a526","getCID(bytes32)":"39ecade2","getCIDState(bytes32)":"e4fe8166","getRoleAdmin(bytes32)":"248a9ca3","grantRole(bytes32,address)":"2f2ff15d","hasRole(bytes32,address)":"91d14854","pause()":"8456cb59","paused()":"5c975abb","registerCID(bytes32,(uint8,uint8,uint16,uint16),bool)":"8db3e54f","renounceRole(bytes32,address)":"36568abe","reportPack((bytes32,bytes32,uint64,uint8,uint64))":"51f3c654","revokeRole(bytes32,address)":"d547741f","slash(bytes32,uint256)":"1c77ff04","supportsInterface(bytes4)":"01ffc9a7","unpause()":"3f4ba83a"},"id":7}